:100000000A128A11FC2FFF1B0D2883137F188317F8
:100010000008840A0319FF0A080000308A00040857
:10002000840A820700345334503445344534443410
:100030003A342034003450344F3457344534523439
:100040003A34203400346D342F3473340034573450
:0200500000347A
:10037400831686018701073085000A128A11DC2161
:100384000A128A110A128A114B250A128A11C429E7
:100394007808F0007908F100F2018E30F300F401DE
:1003A4000A128A11D7227008F8007108F90072083D
:1003B400FA00080038300A128A112E220A128A1111
:1003C4000C300A128A112E220A128A1106300A12DD
:1003D4008A112E220A128A1180300A128A112E22C0
:1003E4000800F00070088600071487100715F10153
:1003F400F2010130F1070318F20A0030F207720823
:10040400803AFF0083307F02031D0A2AE93071021B
:10041400031CFB298312031307110800280827046F
:1004240026040319172A8030A8062908F8002A0888
:10043400F9002B08FA002608FB002708FC0028080E
:10044400FD000A128A11542478088312A600790840
:10045400A7007A08A8000800F0007008831286003C
:10046400071087100715F101F2010130F107031895
:10047400F20A0030F2077208803AFF0083307F02EC
:10048400031D462AE9307102031C372A8312031321
:10049400071108007408FF00730884000A128A1107
:1004A40003200A128A11003A031908007408FF0095
:1004B400730884000A128A1103200A128A110A128C
:1004C4008A11F3210A128A110130F3070318F40A7E
:1004D4000030F4074C2A770878040319982A01306D
:1004E400FB00F81B7F2A01300310F70DF80DFF3EC7
:1004F400031D762A0130FB07732A78087A02031D4C
:10050400852A77087902031C8D2A7708F90278086E
:10051400031CFA03FA0201300310F80CF70CFF3E37
:10052400031D8E2A0130FB02031D7F2A7A08F8007E
:100534007908F7000800F401F50170087104031943
:10054400D22A0130F600F11BB12A01300310F00D5C
:10055400F10DFF3E031DA82A0130F607A52A01303C
:100564000310F40DF50DFF3E031DB22A710873024A
:10057400031DBE2A70087202031CC72A7008F20207
:100584007108031CF303F302741401300310F10C1B
:10059400F00CFF3E031DC82A0130F602031DB12AE8
:1005A4007508F1007408F000080073080319DF2AC5
:1005B400720871047004031DF02A0030F00000304A
:1005C400F1000030F20008000130F307013003109D
:1005D400F20CF10CF00CFF3E031DE92AFE3072050B
:1005E4000319092BE62A0130F3070130F007003024
:1005F40003180130F107003003180130F20701300D
:100604000310F20CF10CF00CFF3E031D022BFF3023
:10061400720503191C2BF52A02307302031C1E2BCE
:100624000130F30201300310F00DF10DF20DFF3E25
:10063400031D152BF11F0E2B7318262BFF30F0050D
:100644007F30F105FF30F2050310F30C7308F50059
:10065400F601F70110300310F50DF60DF70DFF3E0E
:10066400031D2D2B7508F0047608F1047708F204B5
:10067400740803190800F21708003B08BF003C087F
:10068400C0003D08C1000310400D410DC7004708DC
:10069400031D552B0030BE000030BD000030BC00EF
:1006A4000030BB0008003B08BF003C08C0003D0808
:1006B400C10017300310C10CC00CBF0CFF3E031D5A
:1006C4005C2B3F08C200BC17FF30BB05FF30BC05E4
:1006D4000030BD053B08C3003C08C4003D08C5000C
:1006E400C6018E30C702C71F8A2B4708803A8F3E47
:1006F400031C4C2B01300310C60CC50CC40CC30CDA
:10070400FF3E031D7D2B0130C70703199D2B7C2B56
:100714001830470203184C2B470803199D2B01304E
:10072400BF000310C30DC40DC50DC60DBF0B932B25
:100734000130C7028E2B42080319AB2BC309C4092D
:10074400C509C609C30A0319C40A0319C50A03194A
:10075400C60A4608BE004508BD004408BC0043085C
:10076400BB0008002C08B2002D08B3002E08B4000A
:100774000310330D340DB5003508031DC82B0030AC
:10078400AC000030AD000030AE0008002F08B2000D
:100794003008B3003108B4000310330D340DBA002F
:1007A4003A08031DDC2B0030AC000030AD000030F3
:1007B400AE0008003A087B3EB5072E08BA0031089F
:1007C400BA068030BA05AD17B017FF30AF05FF3059
:1007D400B0050030B1050030B6000030B70000307D
:1007E400B8000730B9002C1C052C2F08B6073008B8
:1007F40003110318300A031DB70731080311031846
:10080400310A031DB80701300310AE0CAD0CAC0C5B
:10081400FF3E031D062C01300310AF0DB00DB10DCA
:10082400FF3E031D0E2C0130B902031DF52B0930C8
:10083400B9002C1C2B2C2F08B60730080311031801
:10084400300A031DB707310803110318310A031DC9
:10085400B80701300310AE0CAD0CAC0CFF3E031D09
:100864002C2C01300310B80CB70CB60CFF3E031D42
:10087400342C0130B902031D1B2C3608F000370854
:10088400F1003808F2003508F3003A08F4000A12BF
:100894008A11D72270088312AC007108AD00720867
:1008A400AE0008007808A0007908A1007A08A20028
:1008B4000310210D220DA5007B08A0007C08A100D7
:1008C4007D08A2000310210D220DA40025080319A0
:1008D400772C2408250203187E2C2408A000250860
:1008E400A00219302002031C7E2C7B08F8007C082F
:1008F400F9007D08FA0008002408031908002508F7
:10090400240203188D2C2508A0002408A002193005
:100914002002031808000630A300FA1BA317FD1BCE
:100924002317F917FF30F805FF30F9050030FA05F1
:10093400FC17FF30FB05FF30FC050030FD052408E3
:1009440025020318C92C01300310FB0DFC0DFD0D0D
:10095400FF3E031DA62C0130A4022408250603191A
:10096400C42C0130A302230807390319C42CA52C75
:1009740001300310FA0CF90CF80CFF3E031DBB2CDC
:100984000130A507250824060319F02CBA2C2508E4
:1009940024020318F02C01300310F80DF90DFA0DA0
:1009A400FF3E031DCE2C0130A502240825060319A1
:1009B400EC2C0130A302230807390319EC2CCD2CAD
:1009C40001300310FD0CFC0CFB0CFF3E031DE32C5B
:1009D4000130A40725082406031DE22CA31F022DC1
:1009E400FF30F806FF30F906FF30FA060130F80749
:1009F400003003180130F907003003180130FA07FA
:100A0400231F142DFF30FB06FF30FC06FF30FD06CC
:100A14000130FB07003003180130FC0700300318D5
:100A24000130FD07A3017808FB07790803110318B7
:100A3400790A031DFC077A08031103187A0A031DB7
:100A4400FD07FD1F372DFF30FB06FF30FC06FF308E
:100A5400FD060130FB07003003180130FC070030AD
:100A640003180130FD070130A3007B08F0007C0867
:100A7400F1007D08F2002508F3002308F4000A12AF
:100A84008A11D7227008F8007108F9007208FA0078
:100A94000800C03083169F00813083129F001F1509
:100AA4001F19522D1E088316BB001E08BA003C30C5
:100AB4008312AC007030AD003E30AE0083163B08AC
:100AC400F9003A08F8000A128A11CA210A128A1196
:100AD40078088312AF007908B0007A08B1000A12CE
:100AE4008A11B4230A128A112C088316B4008312C3
:100AF4002D088316B50083122E088316B60089309C
:100B040083129F001F151F19852D1E088316BD0013
:100B14001E08BC0028308312AC002030AD003C30ED
:100B2400AE0083163D08F9003C08F8000A128A1149
:100B3400CA210A128A1178088312AF007908B0001A
:100B44007A08B1000A128A11B4230A128A112C08F5
:100B54008316B70083122D088316B80083122E085B
:100B64008316B90037088312AC0083163808831241
:100B7400AD00831639088312AE008316340883123D
:100B8400AF00831635088312B0008316360883122B
:100B9400B1000A128A11B4230A128A112C0883168E
:100BA400C00083122D088316C10083122E088316F9
:100BB400C20040088312BB00831641088312BC00A4
:100BC400831642088312BD000A128A113F230A12B7
:100BD4008A113C088316C90083123B088316C80097
:100BE40040088312A900831641088312AA008316C1
:100BF40042088312AB0083164908F9004808F8003C
:100C04000A128A11CA210A128A1178088312A600CC
:100C14007908A7007A08A8000A128A1110220A1279
:100C24008A112608AF002708B0002808B100003058
:100C3400AC007A30AD004430AE000A128A11B423FD
:100C44000A128A112C08BB002D08BC002E08BD0016
:100C54000A128A113F230A128A113C088316C7001C
:100C640083123B088316C600E830F0000330F1001D
:100C74004908F3004808F2000A128A119D220A1258
:100C84008A117008303EAA000A30F7000030F800DC
:100C94006430F0000030F1004908F3004808F20025
:100CA4000A128A119D220A128A117108FA00700828
:100CB400F9000A128A116D220A128A117708303E4D
:100CC400AB000A30F7000030F8000A30F0000030C2
:100CD400F1004908F3004808F2000A128A119D2223
:100CE4000A128A117108FA007008F9000A128A11AE
:100CF4006D220A128A117708303EAC000A30F700E0
:100D04000030F8004908FA004808F9000A128A116C
:100D14006D220A128A117708303EAD002E30AE00E3
:100D24000A30F7000030F8000A30F0000030F1001B
:100D34004708F3004608F2000A128A119D220A129B
:100D44008A117108FA007008F9000A128A116D22DA
:100D54000A128A117708303EAF000A30F7000030DB
:100D6400F8004708FA004608F9000A128A116D22B1
:100D74000A128A117708303EB000B1019130831213
:100D84009F001F151F19C42E1E088316BF001E08BE
:100D9400BE0028308312AC002030AD003C30AE00E1
:100DA40083163F08F9003E08F8000A128A11CA2186
:100DB4000A128A1178088312AF007908B0007A0801
:100DC400B1000A128A11B4230A128A112C0883165C
:100DD400C30083122D088316C40083122E088316C1
:100DE400C50043088312BB00831644088312BC0069
:100DF400831645088312BD000A128A113F230A1282
:100E04008A113C088316C90083123B088316C80064
:100E140043088312A900831644088312AA00831688
:100E240045088312AB0083164908F9004808F80006
:100E34000A128A11CA210A128A1178088312A6009A
:100E44007908A7007A08A8000A128A1110220A1247
:100E54008A112608AF002708B0002808B100003026
:100E6400AC007A30AD004430AE000A128A11B423CB
:100E74000A128A112C08BB002D08BC002E08BD00E4
:100E84000A128A113F230A128A113C088316C700EA
:100E940083123B088316C6000A30F7000030F800BE
:100EA4000A30F0000030F1004908F3004808F2006D
:100EB4000A128A119D220A128A117108FA00700816
:100EC400F9000A128A116D220A128A117708303E3B
:100ED400A0000A30F7000030F8004908FA0048087A
:100EE400F9000A128A116D220A128A117708303E1B
:100EF400A1002E30A2006430F0000030F100470859
:100F0400F3004608F2000A128A119D220A128A117D
:100F14007008303EA3000A30F7000030F8000A30B1
:100F2400F0000030F1004708F3004608F2000A120E
:100F34008A119D220A128A117108FA007008F900B8
:100F44000A128A116D220A128A117708303EA4000F
:100F54000A30F7000030F8004708FA004608F900A4
:100F64000A128A116D220A128A117708303EA500EE
:100F7400A60180300A128A112E220A128A1109301F
:100F8400F3008030F4000A128A114C220A128A11EA
:100F9400AA30F3000030F4000A128A114C220A121B
:100FA4008A111530F3008030F4000A128A114C22A1
:100FB4000A128A11C0300A128A112E220A128A11C8
:100FC4000130F3008030F4000A128A114C220A1214
:100FD4008A11A030F3000030F4000A128A114C2266
:100FE4000A128A111130F3008030F4000A128A11B7
:0C0FF4004C22080083010A128A11BA295D
:02400E007A3FF7
:00000001FF
